{
  "_format": "hh-sol-artifact-1",
  "contractName": "Lottery",
  "sourceName": "contracts/Lottery.sol",
  "abi": [
    {
      "inputs": [
        {
          "internalType": "address",
          "name": "tokenAddress",
          "type": "address"
        }
      ],
      "stateMutability": "nonpayable",
      "type": "constructor"
    },
    {
      "inputs": [],
      "name": "enterLottery",
      "outputs": [],
      "stateMutability": "payable",
      "type": "function"
    },
    {
      "inputs": [],
      "name": "getBalance",
      "outputs": [
        {
          "internalType": "uint256",
          "name": "",
          "type": "uint256"
        }
      ],
      "stateMutability": "view",
      "type": "function"
    },
    {
      "inputs": [],
      "name": "getOwner",
      "outputs": [
        {
          "internalType": "address",
          "name": "",
          "type": "address"
        }
      ],
      "stateMutability": "view",
      "type": "function"
    },
    {
      "inputs": [
        {
          "internalType": "address",
          "name": "",
          "type": "address"
        }
      ],
      "name": "lastEntry",
      "outputs": [
        {
          "internalType": "uint256",
          "name": "",
          "type": "uint256"
        }
      ],
      "stateMutability": "view",
      "type": "function"
    },
    {
      "inputs": [
        {
          "internalType": "uint256",
          "name": "fee",
          "type": "uint256"
        }
      ],
      "name": "setEntryFee",
      "outputs": [],
      "stateMutability": "nonpayable",
      "type": "function"
    }
  ],
  "bytecode": "0x60806040523480156200001157600080fd5b5060405162000e0238038062000e028339818101604052810190620000379190620000f9565b33600260006101000a81548173ffffffffffffffffffffffffffffffffffffffff021916908373ffffffffffffffffffffffffffffffffffffffff16021790555080600460006101000a81548173ffffffffffffffffffffffffffffffffffffffff021916908373ffffffffffffffffffffffffffffffffffffffff16021790555060644442620000c9919062000125565b620000d59190620001c0565b6001819055505062000270565b600081519050620000f38162000256565b92915050565b6000602082840312156200010c57600080fd5b60006200011c84828501620000e2565b91505092915050565b60006200013282620001b6565b91506200013f83620001b6565b9250827fffffffffffffffffffffffffffffffffffffffffffffffffffffffffffffffff03821115620001775762000176620001f8565b5b828201905092915050565b60006200018f8262000196565b9050919050565b600073ffffffffffffffffffffffffffffffffffffffff82169050919050565b6000819050919050565b6000620001cd82620001b6565b9150620001da83620001b6565b925082620001ed57620001ec62000227565b5b828206905092915050565b7f4e487b7100000000000000000000000000000000000000000000000000000000600052601160045260246000fd5b7f4e487b7100000000000000000000000000000000000000000000000000000000600052601260045260246000fd5b620002618162000182565b81146200026d57600080fd5b50565b610b8280620002806000396000f3fe60806040526004361061004a5760003560e01c806312065fe01461004f578063893d20e81461007a5780639d506b64146100a5578063c1af5785146100e2578063eb770d0c146100ec575b600080fd5b34801561005b57600080fd5b50610064610115565b60405161007191906109ae565b60405180910390f35b34801561008657600080fd5b5061008f6101c7565b60405161009c91906108ca565b60405180910390f35b3480156100b157600080fd5b506100cc60048036038101906100c79190610630565b6101f1565b6040516100d991906109ae565b60405180910390f35b6100ea610209565b005b3480156100f857600080fd5b50610113600480360381019061010e9190610682565b610542565b005b6000600460009054906101000a900473ffffffffffffffffffffffffffffffffffffffff1673ffffffffffffffffffffffffffffffffffffffff166370a08231336040518263ffffffff1660e01b815260040161017291906108ca565b60206040518083038186803b15801561018a57600080fd5b505afa15801561019e573d6000803e3d6000fd5b505050506040513d601f19601f820116820180604052508101906101c291906106ab565b905090565b6000600260009054906101000a900473ffffffffffffffffffffffffffffffffffffffff16905090565b60036020528060005260406000206000915090505481565b42601e600360003373ffffffffffffffffffffffffffffffffffffffff1673ffffffffffffffffffffffffffffffffffffffff1681526020019081526020016000205461025691906109da565b10610296576040517f08c379a000000000000000000000000000000000000000000000000000000000815260040161028d9061098e565b60405180910390fd5b6064600460009054906101000a900473ffffffffffffffffffffffffffffffffffffffff1673ffffffffffffffffffffffffffffffffffffffff166370a08231306040518263ffffffff1660e01b81526004016102f391906108ca565b60206040518083038186803b15801561030b57600080fd5b505afa15801561031f573d6000803e3d6000fd5b505050506040513d601f19601f8201168201806040525081019061034391906106ab565b1015610384576040517f08c379a000000000000000000000000000000000000000000000000000000000815260040161037b9061094e565b60405180910390fd5b6000543410156103c9576040517f08c379a00000000000000000000000000000000000000000000000000000000081526004016103c09061096e565b60405180910390fd5b42600360003373ffffffffffffffffffffffffffffffffffffffff1673ffffffffffffffffffffffffffffffffffffffff168152602001908152602001600020819055506064600154424461041e91906109da565b61042891906109da565b6104329190610a78565b60018190555060326001541161054057600068056bc75e2d631000009050600460009054906101000a900473ffffffffffffffffffffffffffffffffffffffff1673ffffffffffffffffffffffffffffffffffffffff1663a9059cbb33836040518363ffffffff1660e01b81526004016104ad9291906108e5565b602060405180830381600087803b1580156104c757600080fd5b505af11580156104db573d6000803e3d6000fd5b505050506040513d601f19601f820116820180604052508101906104ff9190610659565b61053e576040517f08c379a00000000000000000000000000000000000000000000000000000000081526004016105359061090e565b60405180910390fd5b505b565b600260009054906101000a900473ffffffffffffffffffffffffffffffffffffffff1673ffffffffffffffffffffffffffffffffffffffff163373ffffffffffffffffffffffffffffffffffffffff16146105d2576040517f08c379a00000000000000000000000000000000000000000000000000000000081526004016105c99061092e565b60405180910390fd5b8060008190555050565b6000813590506105eb81610b07565b92915050565b60008151905061060081610b1e565b92915050565b60008135905061061581610b35565b92915050565b60008151905061062a81610b35565b92915050565b60006020828403121561064257600080fd5b6000610650848285016105dc565b91505092915050565b60006020828403121561066b57600080fd5b6000610679848285016105f1565b91505092915050565b60006020828403121561069457600080fd5b60006106a284828501610606565b91505092915050565b6000602082840312156106bd57600080fd5b60006106cb8482850161061b565b91505092915050565b6106dd81610a30565b82525050565b60006106f06015836109c9565b91507f4661696c65642c20756e61626c6520746f2070617900000000000000000000006000830152602082019050919050565b60006107306023836109c9565b91507f4e696365207472792c206f6e6c79206f776e65722063616e207365742066656560008301527f203b2900000000000000000000000000000000000000000000000000000000006020830152604082019050919050565b60006107966033836109c9565b91507f4f6f6f70732c206c6f7474657279206f7665722c20616c6c20746865206d6f6e60008301527f657920686173206265656e20776f6e21203a29000000000000000000000000006020830152604082019050919050565b60006107fc602b836109c9565b91507f696e76616c696420656e74727920616d6f756e742c207261697365207468652060008301527f7374616b65732121203b290000000000000000000000000000000000000000006020830152604082019050919050565b60006108626032836109c9565b91507f4d7573742077616974203330207365636f6e6473206265666f7265206174746560008301527f6d7074696e67206c6f74746572792e203a2800000000000000000000000000006020830152604082019050919050565b6108c481610a6e565b82525050565b60006020820190506108df60008301846106d4565b92915050565b60006040820190506108fa60008301856106d4565b61090760208301846108bb565b9392505050565b60006020820190508181036000830152610927816106e3565b9050919050565b6000602082019050818103600083015261094781610723565b9050919050565b6000602082019050818103600083015261096781610789565b9050919050565b60006020820190508181036000830152610987816107ef565b9050919050565b600060208201905081810360008301526109a781610855565b9050919050565b60006020820190506109c360008301846108bb565b92915050565b600082825260208201905092915050565b60006109e582610a6e565b91506109f083610a6e565b9250827fffffffffffffffffffffffffffffffffffffffffffffffffffffffffffffffff03821115610a2557610a24610aa9565b5b828201905092915050565b6000610a3b82610a4e565b9050919050565b60008115159050919050565b600073ffffffffffffffffffffffffffffffffffffffff82169050919050565b6000819050919050565b6000610a8382610a6e565b9150610a8e83610a6e565b925082610a9e57610a9d610ad8565b5b828206905092915050565b7f4e487b7100000000000000000000000000000000000000000000000000000000600052601160045260246000fd5b7f4e487b7100000000000000000000000000000000000000000000000000000000600052601260045260246000fd5b610b1081610a30565b8114610b1b57600080fd5b50565b610b2781610a42565b8114610b3257600080fd5b50565b610b3e81610a6e565b8114610b4957600080fd5b5056fea264697066735822122074ac694aa356b16ed3bb13150be68ed9ccfb19915646663744c384dcbcdc23c664736f6c63430008000033",
  "linkReferences": {},
  "deployedLinkReferences": {}
}